{"abi":[{"type":"constructor","inputs":[],"stateMutability":"nonpayable"},{"type":"function","name":"approveFromWaitlist","inputs":[{"name":"user","type":"address","internalType":"address"}],"outputs":[],"stateMutability":"nonpayable"},{"type":"function","name":"getWaitlistLength","inputs":[],"outputs":[{"name":"","type":"uint256","internalType":"uint256"}],"stateMutability":"view"},{"type":"function","name":"getWaitlistPage","inputs":[{"name":"start","type":"uint256","internalType":"uint256"},{"name":"limit","type":"uint256","internalType":"uint256"}],"outputs":[{"name":"","type":"address[]","internalType":"address[]"},{"name":"","type":"uint256[]","internalType":"uint256[]"}],"stateMutability":"view"},{"type":"function","name":"isApproved","inputs":[{"name":"user","type":"address","internalType":"address"}],"outputs":[{"name":"","type":"bool","internalType":"bool"}],"stateMutability":"view"},{"type":"function","name":"joinWaitlist","inputs":[{"name":"assetType","type":"string","internalType":"string"},{"name":"assetDetails","type":"string","internalType":"string"}],"outputs":[],"stateMutability":"nonpayable"},{"type":"function","name":"owner","inputs":[],"outputs":[{"name":"","type":"address","internalType":"address"}],"stateMutability":"view"},{"type":"function","name":"removeFromWaitlist","inputs":[{"name":"user","type":"address","internalType":"address"}],"outputs":[],"stateMutability":"nonpayable"},{"type":"function","name":"renounceOwnership","inputs":[],"outputs":[],"stateMutability":"nonpayable"},{"type":"function","name":"transferOwnership","inputs":[{"name":"newOwner","type":"address","internalType":"address"}],"outputs":[],"stateMutability":"nonpayable"},{"type":"function","name":"waitlist","inputs":[{"name":"","type":"address","internalType":"address"}],"outputs":[{"name":"assetType","type":"string","internalType":"string"},{"name":"assetDetails","type":"string","internalType":"string"},{"name":"timestamp","type":"uint256","internalType":"uint256"},{"name":"approved","type":"bool","internalType":"bool"}],"stateMutability":"view"},{"type":"function","name":"waitlistAddresses","inputs":[{"name":"","type":"uint256","internalType":"uint256"}],"outputs":[{"name":"","type":"address","internalType":"address"}],"stateMutability":"view"},{"type":"event","name":"ApprovedFromWaitlist","inputs":[{"name":"user","type":"address","indexed":true,"internalType":"address"}],"anonymous":false},{"type":"event","name":"JoinedWaitlist","inputs":[{"name":"user","type":"address","indexed":true,"internalType":"address"},{"name":"assetType","type":"string","indexed":false,"internalType":"string"},{"name":"assetDetails","type":"string","indexed":false,"internalType":"string"}],"anonymous":false},{"type":"event","name":"OwnershipTransferred","inputs":[{"name":"previousOwner","type":"address","indexed":true,"internalType":"address"},{"name":"newOwner","type":"address","indexed":true,"internalType":"address"}],"anonymous":false},{"type":"event","name":"RemovedFromWaitlist","inputs":[{"name":"user","type":"address","indexed":true,"internalType":"address"}],"anonymous":false}],"bytecode":{"object":"0x608060405234801561000f575f5ffd5b5061002c61002161004060201b60201c565b61004760201b60201c565b61003b3361004760201b60201c565b610108565b5f33905090565b5f5f5f9054906101000a900473ffffffffffffffffffffffffffffffffffffffff169050815f5f6101000a81548173ffffffffffffffffffffffffffffffffffffffff021916908373ffffffffffffffffffffffffffffffffffffffff1602179055508173ffffffffffffffffffffffffffffffffffffffff168173ffffffffffffffffffffffffffffffffffffffff167f8be0079c531659141344cd1fd0a4f28419497f9722a3daafe3b4186f6b6457e060405160405180910390a35050565b611c7e806101155f395ff3fe608060405234801561000f575f5ffd5b50600436106100a7575f3560e01c80638da5cb5b1161006f5780638da5cb5b1461014e57806393cf761a1461016c578063a7df34161461019c578063d9f39de0146101b8578063da79ce81146101d6578063f2fde38b14610209576100a7565b806333b7df62146100ab57806339396249146100c75780635593ad27146100f8578063673448dd14610114578063715018a614610144575b5f5ffd5b6100c560048036038101906100c09190610fe6565b610225565b005b6100e160048036038101906100dc9190611044565b61047d565b6040516100ef9291906111f0565b60405180910390f35b610112600480360381019061010d9190610fe6565b610686565b005b61012e60048036038101906101299190610fe6565b61083a565b60405161013b919061123f565b60405180910390f35b61014c61088f565b005b6101566108a2565b6040516101639190611267565b60405180910390f35b61018660048036038101906101819190611280565b6108c9565b6040516101939190611267565b60405180910390f35b6101b660048036038101906101b191906113e7565b610904565b005b6101c0610b33565b6040516101cd919061146c565b60405180910390f35b6101f060048036038101906101eb9190610fe6565b610b3f565b60405161020094939291906114e5565b60405180910390f35b610223600480360381019061021e9190610fe6565b610c83565b005b61022d610d05565b5f60015f8373ffffffffffffffffffffffffffffffffffffffff1673ffffffffffffffffffffffffffffffffffffffff1681526020019081526020015f2060020154116102af576040517f08c379a00000000000000000000000000000000000000000000000000000000081526004016102a690611580565b60405180910390fd5b5f6102b982610d83565b905060016002805490506102cd91906115cb565b81101561037b57600260016002805490506102e891906115cb565b815481106102f9576102f86115fe565b5b905f5260205f20015f9054906101000a900473ffffffffffffffffffffffffffffffffffffffff1660028281548110610335576103346115fe565b5b905f5260205f20015f6101000a81548173ffffffffffffffffffffffffffffffffffffffff021916908373ffffffffffffffffffffffffffffffffffffffff1602179055505b600280548061038d5761038c61162b565b5b600190038181905f5260205f20015f6101000a81549073ffffffffffffffffffffffffffffffffffffffff0219169055905560015f8373ffffffffffffffffffffffffffffffffffffffff1673ffffffffffffffffffffffffffffffffffffffff1681526020019081526020015f205f5f82015f61040b9190610f23565b600182015f61041a9190610f23565b600282015f9055600382015f6101000a81549060ff021916905550508173ffffffffffffffffffffffffffffffffffffffff167f20f80618d7a0035e7505340af1a1f6d4fc5bbc5f44c279583191c6b833866b3b60405160405180910390a25050565b6060805f838561048d9190611658565b90506002805490508111156104a55760028054905090505b5f85826104b291906115cb565b90505f8167ffffffffffffffff8111156104cf576104ce6112c3565b5b6040519080825280602002602001820160405280156104fd5781602001602082028036833780820191505090505b5090505f8267ffffffffffffffff81111561051b5761051a6112c3565b5b6040519080825280602002602001820160405280156105495781602001602082028036833780820191505090505b5090505f5f90505b83811015610674576002818a6105679190611658565b81548110610578576105776115fe565b5b905f5260205f20015f9054906101000a900473ffffffffffffffffffffffffffffffffffffffff168382815181106105b3576105b26115fe565b5b602002602001019073ffffffffffffffffffffffffffffffffffffffff16908173ffffffffffffffffffffffffffffffffffffffff168152505060015f848381518110610603576106026115fe565b5b602002602001015173ffffffffffffffffffffffffffffffffffffffff1673ffffffffffffffffffffffffffffffffffffffff1681526020019081526020015f206002015482828151811061065b5761065a6115fe565b5b6020026020010181815250508080600101915050610551565b50818195509550505050509250929050565b61068e610d05565b5f60015f8373ffffffffffffffffffffffffffffffffffffffff1673ffffffffffffffffffffffffffffffffffffffff1681526020019081526020015f206002015411610710576040517f08c379a000000000000000000000000000000000000000000000000000000000815260040161070790611580565b60405180910390fd5b60015f8273ffffffffffffffffffffffffffffffffffffffff1673ffffffffffffffffffffffffffffffffffffffff1681526020019081526020015f206003015f9054906101000a900460ff161561079d576040517f08c379a0000000000000000000000000000000000000000000000000000000008152600401610794906116d5565b60405180910390fd5b6001805f8373ffffffffffffffffffffffffffffffffffffffff1673ffffffffffffffffffffffffffffffffffffffff1681526020019081526020015f206003015f6101000a81548160ff0219169083151502179055508073ffffffffffffffffffffffffffffffffffffffff167f414de74e43e94b0900fbc14b011e3ff545bf4419ddaaf1ca5fe016ca00c8bbbe60405160405180910390a250565b5f60015f8373ffffffffffffffffffffffffffffffffffffffff1673ffffffffffffffffffffffffffffffffffffffff1681526020019081526020015f206003015f9054906101000a900460ff169050919050565b610897610d05565b6108a05f610e5b565b565b5f5f5f9054906101000a900473ffffffffffffffffffffffffffffffffffffffff16905090565b600281815481106108d8575f80fd5b905f5260205f20015f915054906101000a900473ffffffffffffffffffffffffffffffffffffffff1681565b5f825111610947576040517f08c379a000000000000000000000000000000000000000000000000000000000815260040161093e90611763565b60405180910390fd5b5f60015f3373ffffffffffffffffffffffffffffffffffffffff1673ffffffffffffffffffffffffffffffffffffffff1681526020019081526020015f2060020154146109c9576040517f08c379a00000000000000000000000000000000000000000000000000000000081526004016109c0906117cb565b60405180910390fd5b60405180608001604052808381526020018281526020014281526020015f151581525060015f3373ffffffffffffffffffffffffffffffffffffffff1673ffffffffffffffffffffffffffffffffffffffff1681526020019081526020015f205f820151815f019081610a3c91906119e6565b506020820151816001019081610a5291906119e6565b50604082015181600201556060820151816003015f6101000a81548160ff021916908315150217905550905050600233908060018154018082558091505060019003905f5260205f20015f9091909190916101000a81548173ffffffffffffffffffffffffffffffffffffffff021916908373ffffffffffffffffffffffffffffffffffffffff1602179055503373ffffffffffffffffffffffffffffffffffffffff167f31d8b23738d830c3fa9aa5710900e0d76190d676f8738f43e4c5d312ef690d1d8383604051610b27929190611ab5565b60405180910390a25050565b5f600280549050905090565b6001602052805f5260405f205f91509050805f018054610b5e90611816565b80601f0160208091040260200160405190810160405280929190818152602001828054610b8a90611816565b8015610bd55780601f10610bac57610100808354040283529160200191610bd5565b820191905f5260205f20905b815481529060010190602001808311610bb857829003601f168201915b505050505090806001018054610bea90611816565b80601f0160208091040260200160405190810160405280929190818152602001828054610c1690611816565b8015610c615780601f10610c3857610100808354040283529160200191610c61565b820191905f5260205f20905b815481529060010190602001808311610c4457829003601f168201915b505050505090806002015490806003015f9054906101000a900460ff16905084565b610c8b610d05565b5f73ffffffffffffffffffffffffffffffffffffffff168173ffffffffffffffffffffffffffffffffffffffff1603610cf9576040517f08c379a0000000000000000000000000000000000000000000000000000000008152600401610cf090611b5a565b60405180910390fd5b610d0281610e5b565b50565b610d0d610f1c565b73ffffffffffffffffffffffffffffffffffffffff16610d2b6108a2565b73ffffffffffffffffffffffffffffffffffffffff1614610d81576040517f08c379a0000000000000000000000000000000000000000000000000000000008152600401610d7890611bc2565b60405180910390fd5b565b5f5f5f90505b600280549050811015610e1a578273ffffffffffffffffffffffffffffffffffffffff1660028281548110610dc157610dc06115fe565b5b905f5260205f20015f9054906101000a900473ffffffffffffffffffffffffffffffffffffffff1673ffffffffffffffffffffffffffffffffffffffff1603610e0d5780915050610e56565b8080600101915050610d89565b506040517f08c379a0000000000000000000000000000000000000000000000000000000008152600401610e4d90611c2a565b60405180910390fd5b919050565b5f5f5f9054906101000a900473ffffffffffffffffffffffffffffffffffffffff169050815f5f6101000a81548173ffffffffffffffffffffffffffffffffffffffff021916908373ffffffffffffffffffffffffffffffffffffffff1602179055508173ffffffffffffffffffffffffffffffffffffffff168173ffffffffffffffffffffffffffffffffffffffff167f8be0079c531659141344cd1fd0a4f28419497f9722a3daafe3b4186f6b6457e060405160405180910390a35050565b5f33905090565b508054610f2f90611816565b5f825580601f10610f405750610f5d565b601f0160209004905f5260205f2090810190610f5c9190610f60565b5b50565b5b80821115610f77575f815f905550600101610f61565b5090565b5f604051905090565b5f5ffd5b5f5ffd5b5f73ffffffffffffffffffffffffffffffffffffffff82169050919050565b5f610fb582610f8c565b9050919050565b610fc581610fab565b8114610fcf575f5ffd5b50565b5f81359050610fe081610fbc565b92915050565b5f60208284031215610ffb57610ffa610f84565b5b5f61100884828501610fd2565b91505092915050565b5f819050919050565b61102381611011565b811461102d575f5ffd5b50565b5f8135905061103e8161101a565b92915050565b5f5f6040838503121561105a57611059610f84565b5b5f61106785828601611030565b925050602061107885828601611030565b9150509250929050565b5f81519050919050565b5f82825260208201905092915050565b5f819050602082019050919050565b6110b481610fab565b82525050565b5f6110c583836110ab565b60208301905092915050565b5f602082019050919050565b5f6110e782611082565b6110f1818561108c565b93506110fc8361109c565b805f5b8381101561112c57815161111388826110ba565b975061111e836110d1565b9250506001810190506110ff565b5085935050505092915050565b5f81519050919050565b5f82825260208201905092915050565b5f819050602082019050919050565b61116b81611011565b82525050565b5f61117c8383611162565b60208301905092915050565b5f602082019050919050565b5f61119e82611139565b6111a88185611143565b93506111b383611153565b805f5b838110156111e35781516111ca8882611171565b97506111d583611188565b9250506001810190506111b6565b5085935050505092915050565b5f6040820190508181035f83015261120881856110dd565b9050818103602083015261121c8184611194565b90509392505050565b5f8115159050919050565b61123981611225565b82525050565b5f6020820190506112525f830184611230565b92915050565b61126181610fab565b82525050565b5f60208201905061127a5f830184611258565b92915050565b5f6020828403121561129557611294610f84565b5b5f6112a284828501611030565b91505092915050565b5f5ffd5b5f5ffd5b5f601f19601f8301169050919050565b7f4e487b71000000000000000000000000000000000000000000000000000000005f52604160045260245ffd5b6112f9826112b3565b810181811067ffffffffffffffff82111715611318576113176112c3565b5b80604052505050565b5f61132a610f7b565b905061133682826112f0565b919050565b5f67ffffffffffffffff821115611355576113546112c3565b5b61135e826112b3565b9050602081019050919050565b828183375f83830152505050565b5f61138b6113868461133b565b611321565b9050828152602081018484840111156113a7576113a66112af565b5b6113b284828561136b565b509392505050565b5f82601f8301126113ce576113cd6112ab565b5b81356113de848260208601611379565b91505092915050565b5f5f604083850312156113fd576113fc610f84565b5b5f83013567ffffffffffffffff81111561141a57611419610f88565b5b611426858286016113ba565b925050602083013567ffffffffffffffff81111561144757611446610f88565b5b611453858286016113ba565b9150509250929050565b61146681611011565b82525050565b5f60208201905061147f5f83018461145d565b92915050565b5f81519050919050565b5f82825260208201905092915050565b8281835e5f83830152505050565b5f6114b782611485565b6114c1818561148f565b93506114d181856020860161149f565b6114da816112b3565b840191505092915050565b5f6080820190508181035f8301526114fd81876114ad565b9050818103602083015261151181866114ad565b9050611520604083018561145d565b61152d6060830184611230565b95945050505050565b7f576169746c6973743a2075736572206e6f7420696e20776169746c69737400005f82015250565b5f61156a601e8361148f565b915061157582611536565b602082019050919050565b5f6020820190508181035f8301526115978161155e565b9050919050565b7f4e487b71000000000000000000000000000000000000000000000000000000005f52601160045260245ffd5b5f6115d582611011565b91506115e083611011565b92508282039050818111156115f8576115f761159e565b5b92915050565b7f4e487b71000000000000000000000000000000000000000000000000000000005f52603260045260245ffd5b7f4e487b71000000000000000000000000000000000000000000000000000000005f52603160045260245ffd5b5f61166282611011565b915061166d83611011565b92508282019050808211156116855761168461159e565b5b92915050565b7f576169746c6973743a207573657220616c726561647920617070726f766564005f82015250565b5f6116bf601f8361148f565b91506116ca8261168b565b602082019050919050565b5f6020820190508181035f8301526116ec816116b3565b9050919050565b7f576169746c6973743a20617373657420747970652063616e6e6f7420626520655f8201527f6d70747900000000000000000000000000000000000000000000000000000000602082015250565b5f61174d60248361148f565b9150611758826116f3565b604082019050919050565b5f6020820190508181035f83015261177a81611741565b9050919050565b7f576169746c6973743a20616c726561647920696e20776169746c6973740000005f82015250565b5f6117b5601d8361148f565b91506117c082611781565b602082019050919050565b5f6020820190508181035f8301526117e2816117a9565b9050919050565b7f4e487b71000000000000000000000000000000000000000000000000000000005f52602260045260245ffd5b5f600282049050600182168061182d57607f821691505b6020821081036118405761183f6117e9565b5b50919050565b5f819050815f5260205f209050919050565b5f6020601f8301049050919050565b5f82821b905092915050565b5f600883026118a27fffffffffffffffffffffffffffffffffffffffffffffffffffffffffffffffff82611867565b6118ac8683611867565b95508019841693508086168417925050509392505050565b5f819050919050565b5f6118e76118e26118dd84611011565b6118c4565b611011565b9050919050565b5f819050919050565b611900836118cd565b61191461190c826118ee565b848454611873565b825550505050565b5f5f905090565b61192b61191c565b6119368184846118f7565b505050565b5b818110156119595761194e5f82611923565b60018101905061193c565b5050565b601f82111561199e5761196f81611846565b61197884611858565b81016020851015611987578190505b61199b61199385611858565b83018261193b565b50505b505050565b5f82821c905092915050565b5f6119be5f19846008026119a3565b1980831691505092915050565b5f6119d683836119af565b9150826002028217905092915050565b6119ef82611485565b67ffffffffffffffff811115611a0857611a076112c3565b5b611a128254611816565b611a1d82828561195d565b5f60209050601f831160018114611a4e575f8415611a3c578287015190505b611a4685826119cb565b865550611aad565b601f198416611a5c86611846565b5f5b82811015611a8357848901518255600182019150602085019450602081019050611a5e565b86831015611aa05784890151611a9c601f8916826119af565b8355505b6001600288020188555050505b505050505050565b5f6040820190508181035f830152611acd81856114ad565b90508181036020830152611ae181846114ad565b90509392505050565b7f4f776e61626c653a206e6577206f776e657220697320746865207a65726f20615f8201527f6464726573730000000000000000000000000000000000000000000000000000602082015250565b5f611b4460268361148f565b9150611b4f82611aea565b604082019050919050565b5f6020820190508181035f830152611b7181611b38565b9050919050565b7f4f776e61626c653a2063616c6c6572206973206e6f7420746865206f776e65725f82015250565b5f611bac60208361148f565b9150611bb782611b78565b602082019050919050565b5f6020820190508181035f830152611bd981611ba0565b9050919050565b7f576169746c6973743a2061646472657373206e6f7420666f756e6400000000005f82015250565b5f611c14601b8361148f565b9150611c1f82611be0565b602082019050919050565b5f6020820190508181035f830152611c4181611c08565b905091905056fea2646970667358221220876999ec4f57ae9df29df558346a7393a1012647841e7d17f18c49bbab7278dc64736f6c634300081d0033","linkReferences":{}},"methodIdentifiers":{"approveFromWaitlist(address)":"5593ad27","getWaitlistLength()":"d9f39de0","getWaitlistPage(uint256,uint256)":"39396249","isApproved(address)":"673448dd","joinWaitlist(string,string)":"a7df3416","owner()":"8da5cb5b","removeFromWaitlist(address)":"33b7df62","renounceOwnership()":"715018a6","transferOwnership(address)":"f2fde38b","waitlist(address)":"da79ce81","waitlistAddresses(uint256)":"93cf761a"},"id":42}