{"abi":[{"type":"constructor","inputs":[],"stateMutability":"nonpayable"},{"type":"function","name":"buyAsset","inputs":[{"name":"nftContract","type":"address","internalType":"address"},{"name":"tokenId","type":"uint256","internalType":"uint256"}],"outputs":[],"stateMutability":"payable"},{"type":"function","name":"cancelListing","inputs":[{"name":"nftContract","type":"address","internalType":"address"},{"name":"tokenId","type":"uint256","internalType":"uint256"}],"outputs":[],"stateMutability":"nonpayable"},{"type":"function","name":"listAsset","inputs":[{"name":"nftContract","type":"address","internalType":"address"},{"name":"tokenId","type":"uint256","internalType":"uint256"},{"name":"price","type":"uint256","internalType":"uint256"}],"outputs":[],"stateMutability":"nonpayable"},{"type":"function","name":"listings","inputs":[{"name":"","type":"address","internalType":"address"},{"name":"","type":"uint256","internalType":"uint256"}],"outputs":[{"name":"seller","type":"address","internalType":"address"},{"name":"price","type":"uint256","internalType":"uint256"},{"name":"active","type":"bool","internalType":"bool"}],"stateMutability":"view"},{"type":"function","name":"marketplaceFee","inputs":[],"outputs":[{"name":"","type":"uint256","internalType":"uint256"}],"stateMutability":"view"},{"type":"function","name":"onERC721Received","inputs":[{"name":"","type":"address","internalType":"address"},{"name":"","type":"address","internalType":"address"},{"name":"","type":"uint256","internalType":"uint256"},{"name":"","type":"bytes","internalType":"bytes"}],"outputs":[{"name":"","type":"bytes4","internalType":"bytes4"}],"stateMutability":"nonpayable"},{"type":"function","name":"owner","inputs":[],"outputs":[{"name":"","type":"address","internalType":"address"}],"stateMutability":"view"},{"type":"function","name":"renounceOwnership","inputs":[],"outputs":[],"stateMutability":"nonpayable"},{"type":"function","name":"transferOwnership","inputs":[{"name":"newOwner","type":"address","internalType":"address"}],"outputs":[],"stateMutability":"nonpayable"},{"type":"function","name":"updateMarketplaceFee","inputs":[{"name":"newFee","type":"uint256","internalType":"uint256"}],"outputs":[],"stateMutability":"nonpayable"},{"type":"function","name":"withdrawFees","inputs":[],"outputs":[],"stateMutability":"nonpayable"},{"type":"event","name":"AssetListed","inputs":[{"name":"nftContract","type":"address","indexed":true,"internalType":"address"},{"name":"tokenId","type":"uint256","indexed":true,"internalType":"uint256"},{"name":"seller","type":"address","indexed":true,"internalType":"address"},{"name":"price","type":"uint256","indexed":false,"internalType":"uint256"}],"anonymous":false},{"type":"event","name":"AssetSold","inputs":[{"name":"nftContract","type":"address","indexed":true,"internalType":"address"},{"name":"tokenId","type":"uint256","indexed":true,"internalType":"uint256"},{"name":"seller","type":"address","indexed":false,"internalType":"address"},{"name":"buyer","type":"address","indexed":false,"internalType":"address"},{"name":"price","type":"uint256","indexed":false,"internalType":"uint256"}],"anonymous":false},{"type":"event","name":"FeeUpdated","inputs":[{"name":"newFee","type":"uint256","indexed":false,"internalType":"uint256"}],"anonymous":false},{"type":"event","name":"ListingCancelled","inputs":[{"name":"nftContract","type":"address","indexed":true,"internalType":"address"},{"name":"tokenId","type":"uint256","indexed":true,"internalType":"uint256"},{"name":"seller","type":"address","indexed":true,"internalType":"address"}],"anonymous":false},{"type":"event","name":"OwnershipTransferred","inputs":[{"name":"previousOwner","type":"address","indexed":true,"internalType":"address"},{"name":"newOwner","type":"address","indexed":true,"internalType":"address"}],"anonymous":false}],"bytecode":{"object":"0x608060405260fa600355348015610014575f5ffd5b5060015f8190555061003861002d61004c60201b60201c565b61005360201b60201c565b6100473361005360201b60201c565b610116565b5f33905090565b5f60015f9054906101000a900473ffffffffffffffffffffffffffffffffffffffff1690508160015f6101000a81548173ffffffffffffffffffffffffffffffffffffffff021916908373ffffffffffffffffffffffffffffffffffffffff1602179055508173ffffffffffffffffffffffffffffffffffffffff168173ffffffffffffffffffffffffffffffffffffffff167f8be0079c531659141344cd1fd0a4f28419497f9722a3daafe3b4186f6b6457e060405160405180910390a35050565b611ef2806101235f395ff3fe60806040526004361061009a575f3560e01c80636a166964116100635780636a1669641461017e578063715018a6146101a85780638da5cb5b146101be578063938c7c3a146101e8578063b2ddee0614610204578063f2fde38b1461022c5761009a565b806207df301461009e57806306f8b189146100dc578063150b7a021461010457806330eb80cd14610140578063476343ee14610168575b5f5ffd5b3480156100a9575f5ffd5b506100c460048036038101906100bf91906112a3565b610254565b6040516100d393929190611319565b60405180910390f35b3480156100e7575f5ffd5b5061010260048036038101906100fd919061134e565b6102b0565b005b34801561010f575f5ffd5b5061012a600480360381019061012591906114da565b610707565b6040516101379190611594565b60405180910390f35b34801561014b575f5ffd5b50610166600480360381019061016191906115ad565b61071a565b005b348015610173575f5ffd5b5061017c6107a8565b005b348015610189575f5ffd5b506101926108a9565b60405161019f91906115d8565b60405180910390f35b3480156101b3575f5ffd5b506101bc6108af565b005b3480156101c9575f5ffd5b506101d26108c2565b6040516101df91906115f1565b60405180910390f35b61020260048036038101906101fd91906112a3565b6108ea565b005b34801561020f575f5ffd5b5061022a600480360381019061022591906112a3565b610d2e565b005b348015610237575f5ffd5b50610252600480360381019061024d919061160a565b610fe5565b005b6002602052815f5260405f20602052805f5260405f205f9150915050805f015f9054906101000a900473ffffffffffffffffffffffffffffffffffffffff1690806001015490806002015f9054906101000a900460ff16905083565b5f81116102f2576040517f08c379a00000000000000000000000000000000000000000000000000000000081526004016102e9906116b5565b60405180910390fd5b5f8390503373ffffffffffffffffffffffffffffffffffffffff168173ffffffffffffffffffffffffffffffffffffffff16636352211e856040518263ffffffff1660e01b815260040161034691906115d8565b602060405180830381865afa158015610361573d5f5f3e3d5ffd5b505050506040513d601f19601f8201168201806040525081019061038591906116e7565b73ffffffffffffffffffffffffffffffffffffffff16146103db576040517f08c379a00000000000000000000000000000000000000000000000000000000081526004016103d29061175c565b60405180910390fd5b3073ffffffffffffffffffffffffffffffffffffffff168173ffffffffffffffffffffffffffffffffffffffff1663081812fc856040518263ffffffff1660e01b815260040161042b91906115d8565b602060405180830381865afa158015610446573d5f5f3e3d5ffd5b505050506040513d601f19601f8201168201806040525081019061046a91906116e7565b73ffffffffffffffffffffffffffffffffffffffff16148061050257508073ffffffffffffffffffffffffffffffffffffffff1663e985e9c533306040518363ffffffff1660e01b81526004016104c292919061177a565b602060405180830381865afa1580156104dd573d5f5f3e3d5ffd5b505050506040513d601f19601f8201168201806040525081019061050191906117cb565b5b610541576040517f08c379a000000000000000000000000000000000000000000000000000000000815260040161053890611840565b60405180910390fd5b8073ffffffffffffffffffffffffffffffffffffffff166342842e0e3330866040518463ffffffff1660e01b815260040161057e9392919061185e565b5f604051808303815f87803b158015610595575f5ffd5b505af11580156105a7573d5f5f3e3d5ffd5b5050505060405180606001604052803373ffffffffffffffffffffffffffffffffffffffff1681526020018381526020016001151581525060025f8673ffffffffffffffffffffffffffffffffffffffff1673ffffffffffffffffffffffffffffffffffffffff1681526020019081526020015f205f8581526020019081526020015f205f820151815f015f6101000a81548173ffffffffffffffffffffffffffffffffffffffff021916908373ffffffffffffffffffffffffffffffffffffffff160217905550602082015181600101556040820151816002015f6101000a81548160ff0219169083151502179055509050503373ffffffffffffffffffffffffffffffffffffffff16838573ffffffffffffffffffffffffffffffffffffffff167faf06e27273b4227ba370b5fe9e27fd62aff4c7d6d22e5ebfbf83d5fc79cd3ad0856040516106f991906115d8565b60405180910390a450505050565b5f63150b7a0260e01b9050949350505050565b610722611067565b6103e8811115610767576040517f08c379a000000000000000000000000000000000000000000000000000000000815260040161075e906118dd565b60405180910390fd5b806003819055507f8c4d35e54a3f2ef1134138fd8ea3daee6a3c89e10d2665996babdf70261e2c768160405161079d91906115d8565b60405180910390a150565b6107b0611067565b5f4790505f81116107f6576040517f08c379a00000000000000000000000000000000000000000000000000000000081526004016107ed90611945565b60405180910390fd5b5f6107ff6108c2565b73ffffffffffffffffffffffffffffffffffffffff168260405161082290611990565b5f6040518083038185875af1925050503d805f811461085c576040519150601f19603f3d011682016040523d82523d5f602084013e610861565b606091505b50509050806108a5576040517f08c379a000000000000000000000000000000000000000000000000000000000815260040161089c906119ee565b60405180910390fd5b5050565b60035481565b6108b7611067565b6108c05f6110e5565b565b5f60015f9054906101000a900473ffffffffffffffffffffffffffffffffffffffff16905090565b6108f26111a8565b5f60025f8473ffffffffffffffffffffffffffffffffffffffff1673ffffffffffffffffffffffffffffffffffffffff1681526020019081526020015f205f8381526020019081526020015f206040518060600160405290815f82015f9054906101000a900473ffffffffffffffffffffffffffffffffffffffff1673ffffffffffffffffffffffffffffffffffffffff1673ffffffffffffffffffffffffffffffffffffffff16815260200160018201548152602001600282015f9054906101000a900460ff16151515158152505090508060400151610a08576040517f08c379a00000000000000000000000000000000000000000000000000000000081526004016109ff90611a56565b60405180910390fd5b8060200151341015610a4f576040517f08c379a0000000000000000000000000000000000000000000000000000000008152600401610a4690611ae4565b60405180910390fd5b5f60025f8573ffffffffffffffffffffffffffffffffffffffff1673ffffffffffffffffffffffffffffffffffffffff1681526020019081526020015f205f8481526020019081526020015f206002015f6101000a81548160ff0219169083151502179055505f6127106003548360200151610acb9190611b2f565b610ad59190611b9d565b90505f818360200151610ae89190611bcd565b90505f835f015173ffffffffffffffffffffffffffffffffffffffff1682604051610b1290611990565b5f6040518083038185875af1925050503d805f8114610b4c576040519150601f19603f3d011682016040523d82523d5f602084013e610b51565b606091505b5050905080610b95576040517f08c379a0000000000000000000000000000000000000000000000000000000008152600401610b8c90611c70565b60405180910390fd5b8573ffffffffffffffffffffffffffffffffffffffff166342842e0e3033886040518463ffffffff1660e01b8152600401610bd29392919061185e565b5f604051808303815f87803b158015610be9575f5ffd5b505af1158015610bfb573d5f5f3e3d5ffd5b50505050848673ffffffffffffffffffffffffffffffffffffffff167f021a29ff81272a21b02fe01140a1b6b563f0bbbf33d6db57f3ed8820e2a2cf1d865f0151338860200151604051610c519392919061185e565b60405180910390a38360200151341115610d1e575f3373ffffffffffffffffffffffffffffffffffffffff16856020015134610c8d9190611bcd565b604051610c9990611990565b5f6040518083038185875af1925050503d805f8114610cd3576040519150601f19603f3d011682016040523d82523d5f602084013e610cd8565b606091505b5050905080610d1c576040517f08c379a0000000000000000000000000000000000000000000000000000000008152600401610d1390611cd8565b60405180910390fd5b505b50505050610d2a6111f5565b5050565b5f60025f8473ffffffffffffffffffffffffffffffffffffffff1673ffffffffffffffffffffffffffffffffffffffff1681526020019081526020015f205f8381526020019081526020015f206040518060600160405290815f82015f9054906101000a900473ffffffffffffffffffffffffffffffffffffffff1673ffffffffffffffffffffffffffffffffffffffff1673ffffffffffffffffffffffffffffffffffffffff16815260200160018201548152602001600282015f9054906101000a900460ff16151515158152505090508060400151610e44576040517f08c379a0000000000000000000000000000000000000000000000000000000008152600401610e3b90611a56565b60405180910390fd5b3373ffffffffffffffffffffffffffffffffffffffff16815f015173ffffffffffffffffffffffffffffffffffffffff1614610eb5576040517f08c379a0000000000000000000000000000000000000000000000000000000008152600401610eac90611d40565b60405180910390fd5b5f60025f8573ffffffffffffffffffffffffffffffffffffffff1673ffffffffffffffffffffffffffffffffffffffff1681526020019081526020015f205f8481526020019081526020015f206002015f6101000a81548160ff0219169083151502179055508273ffffffffffffffffffffffffffffffffffffffff166342842e0e3033856040518463ffffffff1660e01b8152600401610f589392919061185e565b5f604051808303815f87803b158015610f6f575f5ffd5b505af1158015610f81573d5f5f3e3d5ffd5b505050503373ffffffffffffffffffffffffffffffffffffffff16828473ffffffffffffffffffffffffffffffffffffffff167f8526cb6d400b8a551983c99e6d6fb1775b7a0deeb5d1e39d3ee65bc59e5eac2760405160405180910390a4505050565b610fed611067565b5f73ffffffffffffffffffffffffffffffffffffffff168173ffffffffffffffffffffffffffffffffffffffff160361105b576040517f08c379a000000000000000000000000000000000000000000000000000000000815260040161105290611dce565b60405180910390fd5b611064816110e5565b50565b61106f6111fe565b73ffffffffffffffffffffffffffffffffffffffff1661108d6108c2565b73ffffffffffffffffffffffffffffffffffffffff16146110e3576040517f08c379a00000000000000000000000000000000000000000000000000000000081526004016110da90611e36565b60405180910390fd5b565b5f60015f9054906101000a900473ffffffffffffffffffffffffffffffffffffffff1690508160015f6101000a81548173ffffffffffffffffffffffffffffffffffffffff021916908373ffffffffffffffffffffffffffffffffffffffff1602179055508173ffffffffffffffffffffffffffffffffffffffff168173ffffffffffffffffffffffffffffffffffffffff167f8be0079c531659141344cd1fd0a4f28419497f9722a3daafe3b4186f6b6457e060405160405180910390a35050565b60025f54036111ec576040517f08c379a00000000000000000000000000000000000000000000000000000000081526004016111e390611e9e565b60405180910390fd5b60025f81905550565b60015f81905550565b5f33905090565b5f604051905090565b5f5ffd5b5f5ffd5b5f73ffffffffffffffffffffffffffffffffffffffff82169050919050565b5f61123f82611216565b9050919050565b61124f81611235565b8114611259575f5ffd5b50565b5f8135905061126a81611246565b92915050565b5f819050919050565b61128281611270565b811461128c575f5ffd5b50565b5f8135905061129d81611279565b92915050565b5f5f604083850312156112b9576112b861120e565b5b5f6112c68582860161125c565b92505060206112d78582860161128f565b9150509250929050565b6112ea81611235565b82525050565b6112f981611270565b82525050565b5f8115159050919050565b611313816112ff565b82525050565b5f60608201905061132c5f8301866112e1565b61133960208301856112f0565b611346604083018461130a565b949350505050565b5f5f5f606084860312156113655761136461120e565b5b5f6113728682870161125c565b93505060206113838682870161128f565b92505060406113948682870161128f565b9150509250925092565b5f5ffd5b5f5ffd5b5f601f19601f8301169050919050565b7f4e487b71000000000000000000000000000000000000000000000000000000005f52604160045260245ffd5b6113ec826113a6565b810181811067ffffffffffffffff8211171561140b5761140a6113b6565b5b80604052505050565b5f61141d611205565b905061142982826113e3565b919050565b5f67ffffffffffffffff821115611448576114476113b6565b5b611451826113a6565b9050602081019050919050565b828183375f83830152505050565b5f61147e6114798461142e565b611414565b90508281526020810184848401111561149a576114996113a2565b5b6114a584828561145e565b509392505050565b5f82601f8301126114c1576114c061139e565b5b81356114d184826020860161146c565b91505092915050565b5f5f5f5f608085870312156114f2576114f161120e565b5b5f6114ff8782880161125c565b94505060206115108782880161125c565b93505060406115218782880161128f565b925050606085013567ffffffffffffffff81111561154257611541611212565b5b61154e878288016114ad565b91505092959194509250565b5f7fffffffff0000000000000000000000000000000000000000000000000000000082169050919050565b61158e8161155a565b82525050565b5f6020820190506115a75f830184611585565b92915050565b5f602082840312156115c2576115c161120e565b5b5f6115cf8482850161128f565b91505092915050565b5f6020820190506115eb5f8301846112f0565b92915050565b5f6020820190506116045f8301846112e1565b92915050565b5f6020828403121561161f5761161e61120e565b5b5f61162c8482850161125c565b91505092915050565b5f82825260208201905092915050565b7f4d61726b6574706c6163653a207072696365206d7573742062652067726561745f8201527f6572207468616e207a65726f0000000000000000000000000000000000000000602082015250565b5f61169f602c83611635565b91506116aa82611645565b604082019050919050565b5f6020820190508181035f8301526116cc81611693565b9050919050565b5f815190506116e181611246565b92915050565b5f602082840312156116fc576116fb61120e565b5b5f611709848285016116d3565b91505092915050565b7f4d61726b6574706c6163653a206e6f7420746865206f776e65720000000000005f82015250565b5f611746601a83611635565b915061175182611712565b602082019050919050565b5f6020820190508181035f8301526117738161173a565b9050919050565b5f60408201905061178d5f8301856112e1565b61179a60208301846112e1565b9392505050565b6117aa816112ff565b81146117b4575f5ffd5b50565b5f815190506117c5816117a1565b92915050565b5f602082840312156117e0576117df61120e565b5b5f6117ed848285016117b7565b91505092915050565b7f4d61726b6574706c6163653a206e6f7420617070726f766564000000000000005f82015250565b5f61182a601983611635565b9150611835826117f6565b602082019050919050565b5f6020820190508181035f8301526118578161181e565b9050919050565b5f6060820190506118715f8301866112e1565b61187e60208301856112e1565b61188b60408301846112f0565b949350505050565b7f4d61726b6574706c6163653a2066656520746f6f2068696768000000000000005f82015250565b5f6118c7601983611635565b91506118d282611893565b602082019050919050565b5f6020820190508181035f8301526118f4816118bb565b9050919050565b7f4d61726b6574706c6163653a206e6f206665657320746f2077697468647261775f82015250565b5f61192f602083611635565b915061193a826118fb565b602082019050919050565b5f6020820190508181035f83015261195c81611923565b9050919050565b5f81905092915050565b50565b5f61197b5f83611963565b91506119868261196d565b5f82019050919050565b5f61199a82611970565b9150819050919050565b7f4d61726b6574706c6163653a207769746864726177616c206661696c656400005f82015250565b5f6119d8601e83611635565b91506119e3826119a4565b602082019050919050565b5f6020820190508181035f830152611a05816119cc565b9050919050565b7f4d61726b6574706c6163653a206c697374696e67206e6f7420616374697665005f82015250565b5f611a40601f83611635565b9150611a4b82611a0c565b602082019050919050565b5f6020820190508181035f830152611a6d81611a34565b9050919050565b7f4d61726b6574706c6163653a20696e73756666696369656e74207061796d656e5f8201527f7400000000000000000000000000000000000000000000000000000000000000602082015250565b5f611ace602183611635565b9150611ad982611a74565b604082019050919050565b5f6020820190508181035f830152611afb81611ac2565b9050919050565b7f4e487b71000000000000000000000000000000000000000000000000000000005f52601160045260245ffd5b5f611b3982611270565b9150611b4483611270565b9250828202611b5281611270565b91508282048414831517611b6957611b68611b02565b5b5092915050565b7f4e487b71000000000000000000000000000000000000000000000000000000005f52601260045260245ffd5b5f611ba782611270565b9150611bb283611270565b925082611bc257611bc1611b70565b5b828204905092915050565b5f611bd782611270565b9150611be283611270565b9250828203905081811115611bfa57611bf9611b02565b5b92915050565b7f4d61726b6574706c6163653a207472616e7366657220746f2073656c6c6572205f8201527f6661696c65640000000000000000000000000000000000000000000000000000602082015250565b5f611c5a602683611635565b9150611c6582611c00565b604082019050919050565b5f6020820190508181035f830152611c8781611c4e565b9050919050565b7f4d61726b6574706c6163653a20726566756e64206661696c65640000000000005f82015250565b5f611cc2601a83611635565b9150611ccd82611c8e565b602082019050919050565b5f6020820190508181035f830152611cef81611cb6565b9050919050565b7f4d61726b6574706c6163653a206e6f74207468652073656c6c657200000000005f82015250565b5f611d2a601b83611635565b9150611d3582611cf6565b602082019050919050565b5f6020820190508181035f830152611d5781611d1e565b9050919050565b7f4f776e61626c653a206e6577206f776e657220697320746865207a65726f20615f8201527f6464726573730000000000000000000000000000000000000000000000000000602082015250565b5f611db8602683611635565b9150611dc382611d5e565b604082019050919050565b5f6020820190508181035f830152611de581611dac565b9050919050565b7f4f776e61626c653a2063616c6c6572206973206e6f7420746865206f776e65725f82015250565b5f611e20602083611635565b9150611e2b82611dec565b602082019050919050565b5f6020820190508181035f830152611e4d81611e14565b9050919050565b7f5265656e7472616e637947756172643a207265656e7472616e742063616c6c005f82015250565b5f611e88601f83611635565b9150611e9382611e54565b602082019050919050565b5f6020820190508181035f830152611eb581611e7c565b905091905056fea264697066735822122035fb28ef40d0477ec142229affb9e1aeffdfb80ca8b6338eec73c41122bc080664736f6c634300081d0033","linkReferences":{}},"methodIdentifiers":{"buyAsset(address,uint256)":"938c7c3a","cancelListing(address,uint256)":"b2ddee06","listAsset(address,uint256,uint256)":"06f8b189","listings(address,uint256)":"0007df30","marketplaceFee()":"6a166964","onERC721Received(address,address,uint256,bytes)":"150b7a02","owner()":"8da5cb5b","renounceOwnership()":"715018a6","transferOwnership(address)":"f2fde38b","updateMarketplaceFee(uint256)":"30eb80cd","withdrawFees()":"476343ee"},"id":41}