{"abi":[{"type":"constructor","inputs":[],"stateMutability":"nonpayable"},{"type":"function","name":"approve","inputs":[{"name":"to","type":"address","internalType":"address"},{"name":"tokenId","type":"uint256","internalType":"uint256"}],"outputs":[],"stateMutability":"nonpayable"},{"type":"function","name":"assetInfo","inputs":[{"name":"","type":"uint256","internalType":"uint256"}],"outputs":[{"name":"assetType","type":"string","internalType":"string"},{"name":"assetValue","type":"uint256","internalType":"uint256"},{"name":"assetLocation","type":"string","internalType":"string"},{"name":"isVerified","type":"bool","internalType":"bool"}],"stateMutability":"view"},{"type":"function","name":"balanceOf","inputs":[{"name":"owner","type":"address","internalType":"address"}],"outputs":[{"name":"","type":"uint256","internalType":"uint256"}],"stateMutability":"view"},{"type":"function","name":"getApproved","inputs":[{"name":"tokenId","type":"uint256","internalType":"uint256"}],"outputs":[{"name":"","type":"address","internalType":"address"}],"stateMutability":"view"},{"type":"function","name":"isApprovedForAll","inputs":[{"name":"owner","type":"address","internalType":"address"},{"name":"operator","type":"address","internalType":"address"}],"outputs":[{"name":"","type":"bool","internalType":"bool"}],"stateMutability":"view"},{"type":"function","name":"mintAsset","inputs":[{"name":"to","type":"address","internalType":"address"},{"name":"uri","type":"string","internalType":"string"},{"name":"_assetType","type":"string","internalType":"string"},{"name":"_assetValue","type":"uint256","internalType":"uint256"},{"name":"_assetLocation","type":"string","internalType":"string"}],"outputs":[{"name":"","type":"uint256","internalType":"uint256"}],"stateMutability":"nonpayable"},{"type":"function","name":"name","inputs":[],"outputs":[{"name":"","type":"string","internalType":"string"}],"stateMutability":"view"},{"type":"function","name":"owner","inputs":[],"outputs":[{"name":"","type":"address","internalType":"address"}],"stateMutability":"view"},{"type":"function","name":"ownerOf","inputs":[{"name":"tokenId","type":"uint256","internalType":"uint256"}],"outputs":[{"name":"","type":"address","internalType":"address"}],"stateMutability":"view"},{"type":"function","name":"renounceOwnership","inputs":[],"outputs":[],"stateMutability":"nonpayable"},{"type":"function","name":"safeTransferFrom","inputs":[{"name":"from","type":"address","internalType":"address"},{"name":"to","type":"address","internalType":"address"},{"name":"tokenId","type":"uint256","internalType":"uint256"}],"outputs":[],"stateMutability":"nonpayable"},{"type":"function","name":"safeTransferFrom","inputs":[{"name":"from","type":"address","internalType":"address"},{"name":"to","type":"address","internalType":"address"},{"name":"tokenId","type":"uint256","internalType":"uint256"},{"name":"data","type":"bytes","internalType":"bytes"}],"outputs":[],"stateMutability":"nonpayable"},{"type":"function","name":"setApprovalForAll","inputs":[{"name":"operator","type":"address","internalType":"address"},{"name":"approved","type":"bool","internalType":"bool"}],"outputs":[],"stateMutability":"nonpayable"},{"type":"function","name":"supportsInterface","inputs":[{"name":"interfaceId","type":"bytes4","internalType":"bytes4"}],"outputs":[{"name":"","type":"bool","internalType":"bool"}],"stateMutability":"view"},{"type":"function","name":"symbol","inputs":[],"outputs":[{"name":"","type":"string","internalType":"string"}],"stateMutability":"view"},{"type":"function","name":"tokenURI","inputs":[{"name":"tokenId","type":"uint256","internalType":"uint256"}],"outputs":[{"name":"","type":"string","internalType":"string"}],"stateMutability":"view"},{"type":"function","name":"transferFrom","inputs":[{"name":"from","type":"address","internalType":"address"},{"name":"to","type":"address","internalType":"address"},{"name":"tokenId","type":"uint256","internalType":"uint256"}],"outputs":[],"stateMutability":"nonpayable"},{"type":"function","name":"transferOwnership","inputs":[{"name":"newOwner","type":"address","internalType":"address"}],"outputs":[],"stateMutability":"nonpayable"},{"type":"function","name":"verifyAsset","inputs":[{"name":"tokenId","type":"uint256","internalType":"uint256"}],"outputs":[],"stateMutability":"nonpayable"},{"type":"event","name":"Approval","inputs":[{"name":"owner","type":"address","indexed":true,"internalType":"address"},{"name":"approved","type":"address","indexed":true,"internalType":"address"},{"name":"tokenId","type":"uint256","indexed":true,"internalType":"uint256"}],"anonymous":false},{"type":"event","name":"ApprovalForAll","inputs":[{"name":"owner","type":"address","indexed":true,"internalType":"address"},{"name":"operator","type":"address","indexed":true,"internalType":"address"},{"name":"approved","type":"bool","indexed":false,"internalType":"bool"}],"anonymous":false},{"type":"event","name":"AssetMinted","inputs":[{"name":"tokenId","type":"uint256","indexed":true,"internalType":"uint256"},{"name":"owner","type":"address","indexed":true,"internalType":"address"},{"name":"assetType","type":"string","indexed":false,"internalType":"string"},{"name":"assetValue","type":"uint256","indexed":false,"internalType":"uint256"}],"anonymous":false},{"type":"event","name":"AssetVerified","inputs":[{"name":"tokenId","type":"uint256","indexed":true,"internalType":"uint256"}],"anonymous":false},{"type":"event","name":"BatchMetadataUpdate","inputs":[{"name":"_fromTokenId","type":"uint256","indexed":false,"internalType":"uint256"},{"name":"_toTokenId","type":"uint256","indexed":false,"internalType":"uint256"}],"anonymous":false},{"type":"event","name":"MetadataUpdate","inputs":[{"name":"_tokenId","type":"uint256","indexed":false,"internalType":"uint256"}],"anonymous":false},{"type":"event","name":"OwnershipTransferred","inputs":[{"name":"previousOwner","type":"address","indexed":true,"internalType":"address"},{"name":"newOwner","type":"address","indexed":true,"internalType":"address"}],"anonymous":false},{"type":"event","name":"Transfer","inputs":[{"name":"from","type":"address","indexed":true,"internalType":"address"},{"name":"to","type":"address","indexed":true,"internalType":"address"},{"name":"tokenId","type":"uint256","indexed":true,"internalType":"uint256"}],"anonymous":false}],"bytecode":{"object":"0x608060405234801561000f575f5ffd5b506040518060400160405280601081526020017f5265616c20417373657420546f6b656e000000000000000000000000000000008152506040518060400160405280600381526020017f5241540000000000000000000000000000000000000000000000000000000000815250815f908161008a91906103d4565b50806001908161009a91906103d4565b5050506100b96100ae6100cd60201b60201c565b6100d460201b60201c565b6100c8336100d460201b60201c565b6104a3565b5f33905090565b5f60075f9054906101000a900473ffffffffffffffffffffffffffffffffffffffff1690508160075f6101000a81548173ffffffffffffffffffffffffffffffffffffffff021916908373ffffffffffffffffffffffffffffffffffffffff1602179055508173ffffffffffffffffffffffffffffffffffffffff168173ffffffffffffffffffffffffffffffffffffffff167f8be0079c531659141344cd1fd0a4f28419497f9722a3daafe3b4186f6b6457e060405160405180910390a35050565b5f81519050919050565b7f4e487b71000000000000000000000000000000000000000000000000000000005f52604160045260245ffd5b7f4e487b71000000000000000000000000000000000000000000000000000000005f52602260045260245ffd5b5f600282049050600182168061021257607f821691505b602082108103610225576102246101ce565b5b50919050565b5f819050815f5260205f209050919050565b5f6020601f8301049050919050565b5f82821b905092915050565b5f600883026102877fffffffffffffffffffffffffffffffffffffffffffffffffffffffffffffffff8261024c565b610291868361024c565b95508019841693508086168417925050509392505050565b5f819050919050565b5f819050919050565b5f6102d56102d06102cb846102a9565b6102b2565b6102a9565b9050919050565b5f819050919050565b6102ee836102bb565b6103026102fa826102dc565b848454610258565b825550505050565b5f5f905090565b61031961030a565b6103248184846102e5565b505050565b5b818110156103475761033c5f82610311565b60018101905061032a565b5050565b601f82111561038c5761035d8161022b565b6103668461023d565b81016020851015610375578190505b6103896103818561023d565b830182610329565b50505b505050565b5f82821c905092915050565b5f6103ac5f1984600802610391565b1980831691505092915050565b5f6103c4838361039d565b9150826002028217905092915050565b6103dd82610197565b67ffffffffffffffff8111156103f6576103f56101a1565b5b61040082546101fb565b61040b82828561034b565b5f60209050601f83116001811461043c575f841561042a578287015190505b61043485826103b9565b86555061049b565b601f19841661044a8661022b565b5f5b828110156104715784890151825560018201915060208501945060208101905061044c565b8683101561048e578489015161048a601f89168261039d565b8355505b6001600288020188555050505b505050505050565b613219806104b05f395ff3fe608060405234801561000f575f5ffd5b506004361061011f575f3560e01c8063715018a6116100ab578063a879fcbb1161006f578063a879fcbb14610303578063b88d4fde14610336578063c87b56dd14610352578063e985e9c514610382578063f2fde38b146103b25761011f565b8063715018a61461027157806372d2eac61461027b5780638da5cb5b146102ab57806395d89b41146102c9578063a22cb465146102e75761011f565b806323b872dd116100f257806323b872dd146101bd57806342842e0e146101d957806359fd285c146101f55780636352211e1461021157806370a08231146102415761011f565b806301ffc9a71461012357806306fdde0314610153578063081812fc14610171578063095ea7b3146101a1575b5f5ffd5b61013d60048036038101906101389190611ee7565b6103ce565b60405161014a9190611f2c565b60405180910390f35b61015b61042e565b6040516101689190611fb5565b60405180910390f35b61018b60048036038101906101869190612008565b6104bd565b6040516101989190612072565b60405180910390f35b6101bb60048036038101906101b691906120b5565b6104ff565b005b6101d760048036038101906101d291906120f3565b610615565b005b6101f360048036038101906101ee91906120f3565b610675565b005b61020f600480360381019061020a9190612008565b610694565b005b61022b60048036038101906102269190612008565b610740565b6040516102389190612072565b60405180910390f35b61025b60048036038101906102569190612143565b6107c4565b604051610268919061217d565b60405180910390f35b610279610878565b005b610295600480360381019061029091906122c2565b61088b565b6040516102a2919061217d565b60405180910390f35b6102b36109a9565b6040516102c09190612072565b60405180910390f35b6102d16109d1565b6040516102de9190611fb5565b60405180910390f35b61030160048036038101906102fc91906123b7565b610a61565b005b61031d60048036038101906103189190612008565b610a77565b60405161032d94939291906123f5565b60405180910390f35b610350600480360381019061034b91906124e4565b610bbb565b005b61036c60048036038101906103679190612008565b610c1d565b6040516103799190611fb5565b60405180910390f35b61039c60048036038101906103979190612564565b610d27565b6040516103a99190611f2c565b60405180910390f35b6103cc60048036038101906103c79190612143565b610db5565b005b5f634906490660e01b7bffffffffffffffffffffffffffffffffffffffffffffffffffffffff1916827bffffffffffffffffffffffffffffffffffffffffffffffffffffffff19161480610427575061042682610e37565b5b9050919050565b60605f805461043c906125cf565b80601f0160208091040260200160405190810160405280929190818152602001828054610468906125cf565b80156104b35780601f1061048a576101008083540402835291602001916104b3565b820191905f5260205f20905b81548152906001019060200180831161049657829003601f168201915b5050505050905090565b5f6104c782610f18565b60045f8381526020019081526020015f205f9054906101000a900473ffffffffffffffffffffffffffffffffffffffff169050919050565b5f61050982610740565b90508073ffffffffffffffffffffffffffffffffffffffff168373ffffffffffffffffffffffffffffffffffffffff1603610579576040517f08c379a00000000000000000000000000000000000000000000000000000000081526004016105709061266f565b60405180910390fd5b8073ffffffffffffffffffffffffffffffffffffffff16610598610f63565b73ffffffffffffffffffffffffffffffffffffffff1614806105c757506105c6816105c1610f63565b610d27565b5b610606576040517f08c379a00000000000000000000000000000000000000000000000000000000081526004016105fd906126fd565b60405180910390fd5b6106108383610f6a565b505050565b610626610620610f63565b82611020565b610665576040517f08c379a000000000000000000000000000000000000000000000000000000000815260040161065c9061278b565b60405180910390fd5b6106708383836110b4565b505050565b61068f83838360405180602001604052805f815250610bbb565b505050565b61069c6113a0565b6106a58161141e565b6106e4576040517f08c379a00000000000000000000000000000000000000000000000000000000081526004016106db906127f3565b60405180910390fd5b600160095f8381526020019081526020015f206003015f6101000a81548160ff021916908315150217905550807f7115fa7500082019331bb00caaa9cc745ac6d0414c2af51872c3b69493c9942c60405160405180910390a250565b5f5f61074b8361145e565b90505f73ffffffffffffffffffffffffffffffffffffffff168173ffffffffffffffffffffffffffffffffffffffff16036107bb576040517f08c379a00000000000000000000000000000000000000000000000000000000081526004016107b29061285b565b60405180910390fd5b80915050919050565b5f5f73ffffffffffffffffffffffffffffffffffffffff168273ffffffffffffffffffffffffffffffffffffffff1603610833576040517f08c379a000000000000000000000000000000000000000000000000000000000815260040161082a906128e9565b60405180910390fd5b60035f8373ffffffffffffffffffffffffffffffffffffffff1673ffffffffffffffffffffffffffffffffffffffff1681526020019081526020015f20549050919050565b6108806113a0565b6108895f611497565b565b5f6108946113a0565b5f60085f8154809291906108a790612934565b9190505590506108b7878261155a565b6108c1818761176d565b60405180608001604052808681526020018581526020018481526020015f151581525060095f8381526020019081526020015f205f820151815f0190816109089190612b1b565b506020820151816001015560408201518160020190816109289190612b1b565b506060820151816003015f6101000a81548160ff0219169083151502179055509050508673ffffffffffffffffffffffffffffffffffffffff16817f547a0605917937829f968c64484ab42901fa23cf9bdd38b5c28bd707a180dbc88787604051610994929190612bea565b60405180910390a38091505095945050505050565b5f60075f9054906101000a900473ffffffffffffffffffffffffffffffffffffffff16905090565b6060600180546109e0906125cf565b80601f0160208091040260200160405190810160405280929190818152602001828054610a0c906125cf565b8015610a575780601f10610a2e57610100808354040283529160200191610a57565b820191905f5260205f20905b815481529060010190602001808311610a3a57829003601f168201915b5050505050905090565b610a73610a6c610f63565b838361180f565b5050565b6009602052805f5260405f205f91509050805f018054610a96906125cf565b80601f0160208091040260200160405190810160405280929190818152602001828054610ac2906125cf565b8015610b0d5780601f10610ae457610100808354040283529160200191610b0d565b820191905f5260205f20905b815481529060010190602001808311610af057829003601f168201915b505050505090806001015490806002018054610b28906125cf565b80601f0160208091040260200160405190810160405280929190818152602001828054610b54906125cf565b8015610b9f5780601f10610b7657610100808354040283529160200191610b9f565b820191905f5260205f20905b815481529060010190602001808311610b8257829003601f168201915b505050505090806003015f9054906101000a900460ff16905084565b610bcc610bc6610f63565b83611020565b610c0b576040517f08c379a0000000000000000000000000000000000000000000000000000000008152600401610c029061278b565b60405180910390fd5b610c1784848484611976565b50505050565b6060610c2882610f18565b5f60065f8481526020019081526020015f208054610c45906125cf565b80601f0160208091040260200160405190810160405280929190818152602001828054610c71906125cf565b8015610cbc5780601f10610c9357610100808354040283529160200191610cbc565b820191905f5260205f20905b815481529060010190602001808311610c9f57829003601f168201915b505050505090505f610ccc6119d2565b90505f815103610ce0578192505050610d22565b5f82511115610d14578082604051602001610cfc929190612c52565b60405160208183030381529060405292505050610d22565b610d1d846119e8565b925050505b919050565b5f60055f8473ffffffffffffffffffffffffffffffffffffffff1673ffffffffffffffffffffffffffffffffffffffff1681526020019081526020015f205f8373ffffffffffffffffffffffffffffffffffffffff1673ffffffffffffffffffffffffffffffffffffffff1681526020019081526020015f205f9054906101000a900460ff16905092915050565b610dbd6113a0565b5f73ffffffffffffffffffffffffffffffffffffffff168173ffffffffffffffffffffffffffffffffffffffff1603610e2b576040517f08c379a0000000000000000000000000000000000000000000000000000000008152600401610e2290612ce5565b60405180910390fd5b610e3481611497565b50565b5f7f80ac58cd000000000000000000000000000000000000000000000000000000007bffffffffffffffffffffffffffffffffffffffffffffffffffffffff1916827bffffffffffffffffffffffffffffffffffffffffffffffffffffffff19161480610f0157507f5b5e139f000000000000000000000000000000000000000000000000000000007bffffffffffffffffffffffffffffffffffffffffffffffffffffffff1916827bffffffffffffffffffffffffffffffffffffffffffffffffffffffff1916145b80610f115750610f1082611a4d565b5b9050919050565b610f218161141e565b610f60576040517f08c379a0000000000000000000000000000000000000000000000000000000008152600401610f579061285b565b60405180910390fd5b50565b5f33905090565b8160045f8381526020019081526020015f205f6101000a81548173ffffffffffffffffffffffffffffffffffffffff021916908373ffffffffffffffffffffffffffffffffffffffff160217905550808273ffffffffffffffffffffffffffffffffffffffff16610fda83610740565b73ffffffffffffffffffffffffffffffffffffffff167f8c5be1e5ebec7d5bd14f71427d1e84f3dd0314c0f7b2291e5b200ac8c7c3b92560405160405180910390a45050565b5f5f61102b83610740565b90508073ffffffffffffffffffffffffffffffffffffffff168473ffffffffffffffffffffffffffffffffffffffff16148061106d575061106c8185610d27565b5b806110ab57508373ffffffffffffffffffffffffffffffffffffffff16611093846104bd565b73ffffffffffffffffffffffffffffffffffffffff16145b91505092915050565b8273ffffffffffffffffffffffffffffffffffffffff166110d482610740565b73ffffffffffffffffffffffffffffffffffffffff161461112a576040517f08c379a000000000000000000000000000000000000000000000000000000000815260040161112190612d73565b60405180910390fd5b5f73ffffffffffffffffffffffffffffffffffffffff168273ffffffffffffffffffffffffffffffffffffffff1603611198576040517f08c379a000000000000000000000000000000000000000000000000000000000815260040161118f90612e01565b60405180910390fd5b6111a58383836001611ab6565b8273ffffffffffffffffffffffffffffffffffffffff166111c582610740565b73ffffffffffffffffffffffffffffffffffffffff161461121b576040517f08c379a000000000000000000000000000000000000000000000000000000000815260040161121290612d73565b60405180910390fd5b60045f8281526020019081526020015f205f6101000a81549073ffffffffffffffffffffffffffffffffffffffff0219169055600160035f8573ffffffffffffffffffffffffffffffffffffffff1673ffffffffffffffffffffffffffffffffffffffff1681526020019081526020015f205f8282540392505081905550600160035f8473ffffffffffffffffffffffffffffffffffffffff1673ffffffffffffffffffffffffffffffffffffffff1681526020019081526020015f205f82825401925050819055508160025f8381526020019081526020015f205f6101000a81548173ffffffffffffffffffffffffffffffffffffffff021916908373ffffffffffffffffffffffffffffffffffffffff160217905550808273ffffffffffffffffffffffffffffffffffffffff168473ffffffffffffffffffffffffffffffffffffffff167fddf252ad1be2c89b69c2b068fc378daa952ba7f163c4a11628f55a4df523b3ef60405160405180910390a461139b8383836001611abc565b505050565b6113a8610f63565b73ffffffffffffffffffffffffffffffffffffffff166113c66109a9565b73ffffffffffffffffffffffffffffffffffffffff161461141c576040517f08c379a000000000000000000000000000000000000000000000000000000000815260040161141390612e69565b60405180910390fd5b565b5f5f73ffffffffffffffffffffffffffffffffffffffff1661143f8361145e565b73ffffffffffffffffffffffffffffffffffffffff1614159050919050565b5f60025f8381526020019081526020015f205f9054906101000a900473ffffffffffffffffffffffffffffffffffffffff169050919050565b5f60075f9054906101000a900473ffffffffffffffffffffffffffffffffffffffff1690508160075f6101000a81548173ffffffffffffffffffffffffffffffffffffffff021916908373ffffffffffffffffffffffffffffffffffffffff1602179055508173ffffffffffffffffffffffffffffffffffffffff168173ffffffffffffffffffffffffffffffffffffffff167f8be0079c531659141344cd1fd0a4f28419497f9722a3daafe3b4186f6b6457e060405160405180910390a35050565b5f73ffffffffffffffffffffffffffffffffffffffff168273ffffffffffffffffffffffffffffffffffffffff16036115c8576040517f08c379a00000000000000000000000000000000000000000000000000000000081526004016115bf90612ed1565b60405180910390fd5b6115d18161141e565b15611611576040517f08c379a000000000000000000000000000000000000000000000000000000000815260040161160890612f39565b60405180910390fd5b61161e5f83836001611ab6565b6116278161141e565b15611667576040517f08c379a000000000000000000000000000000000000000000000000000000000815260040161165e90612f39565b60405180910390fd5b600160035f8473ffffffffffffffffffffffffffffffffffffffff1673ffffffffffffffffffffffffffffffffffffffff1681526020019081526020015f205f82825401925050819055508160025f8381526020019081526020015f205f6101000a81548173ffffffffffffffffffffffffffffffffffffffff021916908373ffffffffffffffffffffffffffffffffffffffff160217905550808273ffffffffffffffffffffffffffffffffffffffff165f73ffffffffffffffffffffffffffffffffffffffff167fddf252ad1be2c89b69c2b068fc378daa952ba7f163c4a11628f55a4df523b3ef60405160405180910390a46117695f83836001611abc565b5050565b6117768261141e565b6117b5576040517f08c379a00000000000000000000000000000000000000000000000000000000081526004016117ac90612fc7565b60405180910390fd5b8060065f8481526020019081526020015f2090816117d39190612b1b565b507ff8e1a15aba9398e019f0b49df1a4fde98ee17ae345cb5f6b5e2c27f5033e8ce782604051611803919061217d565b60405180910390a15050565b8173ffffffffffffffffffffffffffffffffffffffff168373ffffffffffffffffffffffffffffffffffffffff160361187d576040517f08c379a00000000000000000000000000000000000000000000000000000000081526004016118749061302f565b60405180910390fd5b8060055f8573ffffffffffffffffffffffffffffffffffffffff1673ffffffffffffffffffffffffffffffffffffffff1681526020019081526020015f205f8473ffffffffffffffffffffffffffffffffffffffff1673ffffffffffffffffffffffffffffffffffffffff1681526020019081526020015f205f6101000a81548160ff0219169083151502179055508173ffffffffffffffffffffffffffffffffffffffff168373ffffffffffffffffffffffffffffffffffffffff167f17307eab39ab6107e8899845ad3d59bd9653f200f220920489ca2b5937696c31836040516119699190611f2c565b60405180910390a3505050565b6119818484846110b4565b61198d84848484611ac2565b6119cc576040517f08c379a00000000000000000000000000000000000000000000000000000000081526004016119c3906130bd565b60405180910390fd5b50505050565b606060405180602001604052805f815250905090565b60606119f382610f18565b5f6119fc6119d2565b90505f815111611a1a5760405180602001604052805f815250611a45565b80611a2484611c44565b604051602001611a35929190612c52565b6040516020818303038152906040525b915050919050565b5f7f01ffc9a7000000000000000000000000000000000000000000000000000000007bffffffffffffffffffffffffffffffffffffffffffffffffffffffff1916827bffffffffffffffffffffffffffffffffffffffffffffffffffffffff1916149050919050565b50505050565b50505050565b5f611ae28473ffffffffffffffffffffffffffffffffffffffff16611d0e565b15611c37578373ffffffffffffffffffffffffffffffffffffffff1663150b7a02611b0b610f63565b8786866040518563ffffffff1660e01b8152600401611b2d949392919061312d565b6020604051808303815f875af1925050508015611b6857506040513d601f19601f82011682018060405250810190611b65919061318b565b60015b611be7573d805f8114611b96576040519150601f19603f3d011682016040523d82523d5f602084013e611b9b565b606091505b505f815103611bdf576040517f08c379a0000000000000000000000000000000000000000000000000000000008152600401611bd6906130bd565b60405180910390fd5b805181602001fd5b63150b7a0260e01b7bffffffffffffffffffffffffffffffffffffffffffffffffffffffff1916817bffffffffffffffffffffffffffffffffffffffffffffffffffffffff191614915050611c3c565b600190505b949350505050565b60605f6001611c5284611d30565b0190505f8167ffffffffffffffff811115611c7057611c6f61219e565b5b6040519080825280601f01601f191660200182016040528015611ca25781602001600182028036833780820191505090505b5090505f82602001820190505b600115611d03578080600190039150507f3031323334353637383961626364656600000000000000000000000000000000600a86061a8153600a8581611cf857611cf76131b6565b5b0494505f8503611caf575b819350505050919050565b5f5f8273ffffffffffffffffffffffffffffffffffffffff163b119050919050565b5f5f5f90507a184f03e93ff9f4daa797ed6e38ed64bf6a1f0100000000000000008310611d8c577a184f03e93ff9f4daa797ed6e38ed64bf6a1f0100000000000000008381611d8257611d816131b6565b5b0492506040810190505b6d04ee2d6d415b85acef81000000008310611dc9576d04ee2d6d415b85acef81000000008381611dbf57611dbe6131b6565b5b0492506020810190505b662386f26fc100008310611df857662386f26fc100008381611dee57611ded6131b6565b5b0492506010810190505b6305f5e1008310611e21576305f5e1008381611e1757611e166131b6565b5b0492506008810190505b6127108310611e46576127108381611e3c57611e3b6131b6565b5b0492506004810190505b60648310611e695760648381611e5f57611e5e6131b6565b5b0492506002810190505b600a8310611e78576001810190505b80915050919050565b5f604051905090565b5f5ffd5b5f5ffd5b5f7fffffffff0000000000000000000000000000000000000000000000000000000082169050919050565b611ec681611e92565b8114611ed0575f5ffd5b50565b5f81359050611ee181611ebd565b92915050565b5f60208284031215611efc57611efb611e8a565b5b5f611f0984828501611ed3565b91505092915050565b5f8115159050919050565b611f2681611f12565b82525050565b5f602082019050611f3f5f830184611f1d565b92915050565b5f81519050919050565b5f82825260208201905092915050565b8281835e5f83830152505050565b5f601f19601f8301169050919050565b5f611f8782611f45565b611f918185611f4f565b9350611fa1818560208601611f5f565b611faa81611f6d565b840191505092915050565b5f6020820190508181035f830152611fcd8184611f7d565b905092915050565b5f819050919050565b611fe781611fd5565b8114611ff1575f5ffd5b50565b5f8135905061200281611fde565b92915050565b5f6020828403121561201d5761201c611e8a565b5b5f61202a84828501611ff4565b91505092915050565b5f73ffffffffffffffffffffffffffffffffffffffff82169050919050565b5f61205c82612033565b9050919050565b61206c81612052565b82525050565b5f6020820190506120855f830184612063565b92915050565b61209481612052565b811461209e575f5ffd5b50565b5f813590506120af8161208b565b92915050565b5f5f604083850312156120cb576120ca611e8a565b5b5f6120d8858286016120a1565b92505060206120e985828601611ff4565b9150509250929050565b5f5f5f6060848603121561210a57612109611e8a565b5b5f612117868287016120a1565b9350506020612128868287016120a1565b925050604061213986828701611ff4565b9150509250925092565b5f6020828403121561215857612157611e8a565b5b5f612165848285016120a1565b91505092915050565b61217781611fd5565b82525050565b5f6020820190506121905f83018461216e565b92915050565b5f5ffd5b5f5ffd5b7f4e487b71000000000000000000000000000000000000000000000000000000005f52604160045260245ffd5b6121d482611f6d565b810181811067ffffffffffffffff821117156121f3576121f261219e565b5b80604052505050565b5f612205611e81565b905061221182826121cb565b919050565b5f67ffffffffffffffff8211156122305761222f61219e565b5b61223982611f6d565b9050602081019050919050565b828183375f83830152505050565b5f61226661226184612216565b6121fc565b9050828152602081018484840111156122825761228161219a565b5b61228d848285612246565b509392505050565b5f82601f8301126122a9576122a8612196565b5b81356122b9848260208601612254565b91505092915050565b5f5f5f5f5f60a086880312156122db576122da611e8a565b5b5f6122e8888289016120a1565b955050602086013567ffffffffffffffff81111561230957612308611e8e565b5b61231588828901612295565b945050604086013567ffffffffffffffff81111561233657612335611e8e565b5b61234288828901612295565b935050606061235388828901611ff4565b925050608086013567ffffffffffffffff81111561237457612373611e8e565b5b61238088828901612295565b9150509295509295909350565b61239681611f12565b81146123a0575f5ffd5b50565b5f813590506123b18161238d565b92915050565b5f5f604083850312156123cd576123cc611e8a565b5b5f6123da858286016120a1565b92505060206123eb858286016123a3565b9150509250929050565b5f6080820190508181035f83015261240d8187611f7d565b905061241c602083018661216e565b818103604083015261242e8185611f7d565b905061243d6060830184611f1d565b95945050505050565b5f67ffffffffffffffff8211156124605761245f61219e565b5b61246982611f6d565b9050602081019050919050565b5f61248861248384612446565b6121fc565b9050828152602081018484840111156124a4576124a361219a565b5b6124af848285612246565b509392505050565b5f82601f8301126124cb576124ca612196565b5b81356124db848260208601612476565b91505092915050565b5f5f5f5f608085870312156124fc576124fb611e8a565b5b5f612509878288016120a1565b945050602061251a878288016120a1565b935050604061252b87828801611ff4565b925050606085013567ffffffffffffffff81111561254c5761254b611e8e565b5b612558878288016124b7565b91505092959194509250565b5f5f6040838503121561257a57612579611e8a565b5b5f612587858286016120a1565b9250506020612598858286016120a1565b9150509250929050565b7f4e487b71000000000000000000000000000000000000000000000000000000005f52602260045260245ffd5b5f60028204905060018216806125e657607f821691505b6020821081036125f9576125f86125a2565b5b50919050565b7f4552433732313a20617070726f76616c20746f2063757272656e74206f776e655f8201527f7200000000000000000000000000000000000000000000000000000000000000602082015250565b5f612659602183611f4f565b9150612664826125ff565b604082019050919050565b5f6020820190508181035f8301526126868161264d565b9050919050565b7f4552433732313a20617070726f76652063616c6c6572206973206e6f7420746f5f8201527f6b656e206f776e6572206f7220617070726f76656420666f7220616c6c000000602082015250565b5f6126e7603d83611f4f565b91506126f28261268d565b604082019050919050565b5f6020820190508181035f830152612714816126db565b9050919050565b7f4552433732313a2063616c6c6572206973206e6f7420746f6b656e206f776e655f8201527f72206f7220617070726f76656400000000000000000000000000000000000000602082015250565b5f612775602d83611f4f565b91506127808261271b565b604082019050919050565b5f6020820190508181035f8301526127a281612769565b9050919050565b7f4173736574546f6b656e3a20746f6b656e20646f6573206e6f742065786973745f82015250565b5f6127dd602083611f4f565b91506127e8826127a9565b602082019050919050565b5f6020820190508181035f83015261280a816127d1565b9050919050565b7f4552433732313a20696e76616c696420746f6b656e20494400000000000000005f82015250565b5f612845601883611f4f565b915061285082612811565b602082019050919050565b5f6020820190508181035f83015261287281612839565b9050919050565b7f4552433732313a2061646472657373207a65726f206973206e6f7420612076615f8201527f6c6964206f776e65720000000000000000000000000000000000000000000000602082015250565b5f6128d3602983611f4f565b91506128de82612879565b604082019050919050565b5f6020820190508181035f830152612900816128c7565b9050919050565b7f4e487b71000000000000000000000000000000000000000000000000000000005f52601160045260245ffd5b5f61293e82611fd5565b91507fffffffffffffffffffffffffffffffffffffffffffffffffffffffffffffffff82036129705761296f612907565b5b600182019050919050565b5f819050815f5260205f209050919050565b5f6020601f8301049050919050565b5f82821b905092915050565b5f600883026129d77fffffffffffffffffffffffffffffffffffffffffffffffffffffffffffffffff8261299c565b6129e1868361299c565b95508019841693508086168417925050509392505050565b5f819050919050565b5f612a1c612a17612a1284611fd5565b6129f9565b611fd5565b9050919050565b5f819050919050565b612a3583612a02565b612a49612a4182612a23565b8484546129a8565b825550505050565b5f5f905090565b612a60612a51565b612a6b818484612a2c565b505050565b5b81811015612a8e57612a835f82612a58565b600181019050612a71565b5050565b601f821115612ad357612aa48161297b565b612aad8461298d565b81016020851015612abc578190505b612ad0612ac88561298d565b830182612a70565b50505b505050565b5f82821c905092915050565b5f612af35f1984600802612ad8565b1980831691505092915050565b5f612b0b8383612ae4565b9150826002028217905092915050565b612b2482611f45565b67ffffffffffffffff811115612b3d57612b3c61219e565b5b612b4782546125cf565b612b52828285612a92565b5f60209050601f831160018114612b83575f8415612b71578287015190505b612b7b8582612b00565b865550612be2565b601f198416612b918661297b565b5f5b82811015612bb857848901518255600182019150602085019450602081019050612b93565b86831015612bd55784890151612bd1601f891682612ae4565b8355505b6001600288020188555050505b505050505050565b5f6040820190508181035f830152612c028185611f7d565b9050612c11602083018461216e565b9392505050565b5f81905092915050565b5f612c2c82611f45565b612c368185612c18565b9350612c46818560208601611f5f565b80840191505092915050565b5f612c5d8285612c22565b9150612c698284612c22565b91508190509392505050565b7f4f776e61626c653a206e6577206f776e657220697320746865207a65726f20615f8201527f6464726573730000000000000000000000000000000000000000000000000000602082015250565b5f612ccf602683611f4f565b9150612cda82612c75565b604082019050919050565b5f6020820190508181035f830152612cfc81612cc3565b9050919050565b7f4552433732313a207472616e736665722066726f6d20696e636f7272656374205f8201527f6f776e6572000000000000000000000000000000000000000000000000000000602082015250565b5f612d5d602583611f4f565b9150612d6882612d03565b604082019050919050565b5f6020820190508181035f830152612d8a81612d51565b9050919050565b7f4552433732313a207472616e7366657220746f20746865207a65726f206164645f8201527f7265737300000000000000000000000000000000000000000000000000000000602082015250565b5f612deb602483611f4f565b9150612df682612d91565b604082019050919050565b5f6020820190508181035f830152612e1881612ddf565b9050919050565b7f4f776e61626c653a2063616c6c6572206973206e6f7420746865206f776e65725f82015250565b5f612e53602083611f4f565b9150612e5e82612e1f565b602082019050919050565b5f6020820190508181035f830152612e8081612e47565b9050919050565b7f4552433732313a206d696e7420746f20746865207a65726f20616464726573735f82015250565b5f612ebb602083611f4f565b9150612ec682612e87565b602082019050919050565b5f6020820190508181035f830152612ee881612eaf565b9050919050565b7f4552433732313a20746f6b656e20616c7265616479206d696e746564000000005f82015250565b5f612f23601c83611f4f565b9150612f2e82612eef565b602082019050919050565b5f6020820190508181035f830152612f5081612f17565b9050919050565b7f45524337323155524953746f726167653a2055524920736574206f66206e6f6e5f8201527f6578697374656e7420746f6b656e000000000000000000000000000000000000602082015250565b5f612fb1602e83611f4f565b9150612fbc82612f57565b604082019050919050565b5f6020820190508181035f830152612fde81612fa5565b9050919050565b7f4552433732313a20617070726f766520746f2063616c6c6572000000000000005f82015250565b5f613019601983611f4f565b915061302482612fe5565b602082019050919050565b5f6020820190508181035f8301526130468161300d565b9050919050565b7f4552433732313a207472616e7366657220746f206e6f6e2045524337323152655f8201527f63656976657220696d706c656d656e7465720000000000000000000000000000602082015250565b5f6130a7603283611f4f565b91506130b28261304d565b604082019050919050565b5f6020820190508181035f8301526130d48161309b565b9050919050565b5f81519050919050565b5f82825260208201905092915050565b5f6130ff826130db565b61310981856130e5565b9350613119818560208601611f5f565b61312281611f6d565b840191505092915050565b5f6080820190506131405f830187612063565b61314d6020830186612063565b61315a604083018561216e565b818103606083015261316c81846130f5565b905095945050505050565b5f8151905061318581611ebd565b92915050565b5f602082840312156131a05761319f611e8a565b5b5f6131ad84828501613177565b91505092915050565b7f4e487b71000000000000000000000000000000000000000000000000000000005f52601260045260245ffdfea264697066735822122082b10a2fc5d3a6eec9f08726681bdd03e0a6038f9f571a7167337bca3726ed9d64736f6c634300081d0033","linkReferences":{}},"methodIdentifiers":{"approve(address,uint256)":"095ea7b3","assetInfo(uint256)":"a879fcbb","balanceOf(address)":"70a08231","getApproved(uint256)":"081812fc","isApprovedForAll(address,address)":"e985e9c5","mintAsset(address,string,string,uint256,string)":"72d2eac6","name()":"06fdde03","owner()":"8da5cb5b","ownerOf(uint256)":"6352211e","renounceOwnership()":"715018a6","safeTransferFrom(address,address,uint256)":"42842e0e","safeTransferFrom(address,address,uint256,bytes)":"b88d4fde","setApprovalForAll(address,bool)":"a22cb465","supportsInterface(bytes4)":"01ffc9a7","symbol()":"95d89b41","tokenURI(uint256)":"c87b56dd","transferFrom(address,address,uint256)":"23b872dd","transferOwnership(address)":"f2fde38b","verifyAsset(uint256)":"59fd285c"},"id":39}